:100000000C9467000C948F000C948F000C948F005C
:100010000C948F000C948F000C948F000C94840629
:100020000C948F000C948F000C948F000C948F0014
:100030000C948F000C948F000C948F000C948F0004
:100040000C943A060C948F000C942C070C94060721
:100050000C948F000C948F000C948F000C948F00E4
:100060000C948F000C948F001112131415160A0BA8
:100070000C0D0E0F00010203040500000008000231
:10008000010000030407000000000000000002005F
:10009000000000250028002B00000000002400279D
:1000A000002A0004040404040404040202020202FC
:1000B000020303030303030102040810204080012C
:1000C000020408102001020408102000280A11244C
:1000D0001FBECFEFD8E0DEBFCDBF22E0A6E4B1E087
:1000E00001C01D92AA30B207E1F711E0A0E0B1E033
:1000F000E4EDF7E102C005900D92A634B107D9F7FF
:1001000010E0C7E6D0E004C02197FE010E94A10ADA
:10011000C636D107C9F70E945E070C94E80B0C9411
:10012000000090E0FC01E954FF4F2491FC01ED55E3
:10013000FF4F8491882399F090E0880F991FFC016C
:10014000E756FF4FA591B491FC01E157FF4F859110
:1001500094918FB7F894EC91E22BEC938FBF0895B4
:100160003F924F925F926F927F928F929F92AF9247
:10017000BF92CF92DF92EF92FF920F931F93CF9394
:10018000DF9300D000D0CDB7DEB72091000126303C
:1001900021F02F3F09F02BC204C0EEE8F0E03490CC
:1001A00076C026E020930001EEE8F0E0E491EF3F16
:1001B00009F41DC2E13011F1E23009F443C0E1114C
:1001C00065C014BC15BC24B5226024BD25B52160D2
:1001D00025BDE9EAF0E0E491F0E0EE0FFF1FE15702
:1001E000FF4F2591349130935C0120935B01EDEB3F
:1001F000F0E0E491E0935A01312C4BC01092800062
:10020000109281002091810028602093810020912C
:100210008100216020938100E9EAF0E0E491F0E0C0
:10022000EE0FFF1FE157FF4F259134913093590195
:1002300020935801EDEBF0E0E491E0935701332473
:10024000339427C01092B0001092B1002091B000FA
:1002500022602093B0002091B10021602093B10072
:10026000E9EAF0E0E491F0E0EE0FFF1FE157FF4F05
:10027000259134913093560120935501EDEBF0E038
:10028000E491E0935401B2E03B2E03C03E2E37FCD4
:10029000AEC12A013B018C0186E00E949100480119
:1002A000A12CB12C832D8D7F09F0BBC060E072E1E1
:1002B0008AE790E0A50194010E94770A29833A8396
:1002C0004B835C8369017A0121E0C21AD108E108FD
:1002D000F1088FEFC816D104E104F10409F008F425
:1002E0004CC060E472E48FE090E0A50194010E94AC
:1002F000770A69017A01E1E0CE1AD108E108F10834
:10030000F2E03F1220C02FEFC216D104E104F10445
:1003100009F008F46AC160E970ED83E090E0A5019E
:1003200094010E94770A69017A0181E0C81AD10814
:10033000E108F108EFEFCE16D104E104F10409F071
:10034000D0F583E067C0FFEFCF16D104E104F104DC
:10035000B1F0A8F068E478EE81E090E0A5019401A6
:100360000E94770A69017A0181E0C81AD108E10880
:10037000F108332009F4DFC02FC181E001C082E021
:100380003320A1F047C089819A81AB81BC812AE0EA
:10039000B595A795979587952A95D1F76C017D011D
:1003A00021E0C21AD108E108F10885E095B5987FEF
:1003B000892B85BD6FC068E478EE81E090E0A501EF
:1003C00094010E94770A69017A01F1E0CF1AD108FD
:1003D000E108F1082FEFC216D104E104F10409F09D
:1003E00008F4A7C064E274EF80E090E0A5019401F6
:1003F0000E94770A69017A01E1E0CE1AD108E1088A
:10040000F108FFEFCF16D104E104F10411F008F078
:10041000B4C085E09091B100987F892B8093B100A2
:1004200039C060E072E18AE790E0A50194010E9482
:10043000770A69017A0181E0C81AD108E108F10858
:10044000C114D104E1E0EE06F10488F068E478EE2E
:1004500081E090E0A50194010E94770A69017A0188
:10046000F1E0CF1AD108E108F10893E001C091E072
:1004700021E032120FC080918100887F892B809308
:100480008100411451046104710449F42FEF3FEFDE
:10049000A9012DC0411451046104710471F0D80107
:1004A000AA0FBB1FA30192010E94960A28EE33E017
:1004B00040E050E00E94550A03C02FEF3FEFA90132
:1004C00081E03816A1F0E2E03E1619F131108FC03C
:1004D000C7BC209365013093660140936701509338
:1004E000680180916E00826080936E0080C0D0921F
:1004F0008900C0928800209361013093620140938B
:1005000063015093640180916F00826080936F005B
:100510006EC0C092B30020935D0130935E014093A2
:100520005F01509360018091700082608093700041
:100530005EC084E06FCFFFEFCF16D104E104F10479
:10054000D1F0C8F062E17AE780E090E0A501940183
:100550000E94770A69017A0181E0C81AD108E1088E
:10056000F108EFEFCE16D104E104F10411F008F028
:100570000ACF84E01BCF83E019CF62E17AE780E005
:1005800090E0A50194010E94770A69017A0181E057
:10059000C81AD108E108F108EFEFCE16D104E10442
:1005A000F104C1F0B8F089819A81AB81BC814AE045
:1005B000B595A795979587954A95D1F76C017D01DB
:1005C00021E0C21AD108E108F108332009F4EDCE88
:1005D00087E020CF86E0D4CEFFEFCF16D104E10430
:1005E000F10409F050F684E0CBCE82E013CF0F90F7
:1005F0000F900F900F90DF91CF911F910F91FF906F
:10060000EF90DF90CF90BF90AF909F908F907F90B2
:100610006F905F904F903F90089590E0FC01E658F6
:10062000FF4F3491FC01E954FF4F2491FC01ED553B
:10063000FF4FE491EE2309F43BC0332339F133300B
:1006400091F038F43130A9F0323001F584B58F7D66
:1006500012C0373091F03830A1F03430B9F48091C5
:1006600080008F7D03C0809180008F778093800011
:100670000DC084B58F7784BD09C08091B0008F779D
:1006800003C08091B0008F7D8093B000F0E0EE0F4A
:10069000FF1FE157FF4FA591B4918FB7F894EC91EC
:1006A000611103C020952E2301C02E2B2C938FBFE8
:1006B00008958230910538F0880F991F880F991F8F
:1006C00005970197F1F708953FB7F894809150018D
:1006D00090915101A0915201B091530126B5A89B70
:1006E00005C02F3F19F00196A11DB11D3FBFBA2FC4
:1006F000A92F982F8827820F911DA11DB11DBC0124
:10070000CD0142E0660F771F881F991F4A95D1F7E8
:1007100008958F929F92AF92BF92CF92DF92EF9205
:10072000FF926B017C010E9464034B015C01C114C8
:10073000D104E104F104F1F00E946403DC01CB0177
:1007400088199909AA09BB09883E9340A105B105FA
:1007500070F321E0C21AD108E108F10888EE880E92
:1007600083E0981EA11CB11CC114D104E104F10462
:1007700019F7DDCFFF90EF90DF90CF90BF90AF9053
:100780009F908F900895CF92DF92EF92FF920F93F8
:100790001F93CF93DF936C017A018B01C0E0D0E00F
:1007A000CE15DF0589F0D8016D918D01D601ED914F
:1007B000FC910190F081E02DC6010995892B11F47F
:1007C0007E0102C02196ECCFC701DF91CF911F912E
:1007D0000F91FF90EF90DF90CF900895089580E003
:1007E00090E00895FC01538D448D252F30E0842F37
:1007F00090E0821B930B541710F0CF960895019749
:100800000895FC01918D828D981761F0828DDF0132
:10081000A80FB11D5D968C91928D9F5F9F73928FF3
:1008200090E008958FEF9FEF0895FC01918D828DE8
:10083000981731F0828DE80FF11D858D90E00895B5
:100840008FEF9FEF0895FC01918D228D892F90E00D
:10085000805C9F4F821B91098F739927089589E6C9
:1008600091E00E94230421E0892B09F420E0822FEB
:100870000895FC01848DDF01A80FB11DA35ABF4F5D
:100880002C91848D90E001968F739927848FA6898F
:10089000B7892C93A089B1898C9180648C93938DB6
:1008A000848D981306C00288F389E02D80818F7DA6
:1008B00080830895EF92FF920F931F93CF93DF935E
:1008C000EC0181E0888F9B8D8C8D981305C0E889A1
:1008D000F989808185FD24C0F62E0B8D10E00F5F15
:1008E0001F4F0F731127E02E8C8DE8120CC00FB62E
:1008F00007FCFACFE889F989808185FFF5CFCE0121
:100900000E943904F1CF8B8DFE01E80FF11DE35AEF
:10091000FF4FF0820B8FEA89FB898081806207C0DC
:10092000EE89FF896083E889F9898081806480830A
:1009300081E090E0DF91CF911F910F91FF90EF90B8
:100940000895CF93DF93EC01888D8823C9F0EA895D
:10095000FB89808185FD05C0A889B9898C9186FDB8
:100960000FC00FB607FCF5CF808185FFF2CFA889B5
:10097000B9898C9185FFEDCFCE010E943904E7CF74
:10098000DF91CF91089580E090E0892B29F00E94BB
:100990002F0481110C9400000895FC012081318105
:1009A000828193812817390719F0822F0C940D0347
:1009B00008958EBD00000DB407FEFDCF8EB50895DD
:1009C000009769F0FC0101900020E9F73197AF0131
:1009D000481B590BBC0189E691E00C94C30380E0ED
:1009E00090E00895CF93DF930E94E004EC0189E149
:1009F00091E00E94E0048C0F9D1FDF91CF9108953C
:100A0000CF93DF93EC019CB59F7D9CBD9CB5937FFC
:100A10009CBD9CB59C7F9CBD9DB591609DBD8A8110
:100A20000E940D038C899D89DF91CF910C9459030D
:100A300061E00C9400051F93CF93DF93EC0160E01D
:100A40000E94000581EE0E94D904182FCE010E9459
:100A50001805812FDF91CF911F910895FF920F9379
:100A60001F93CF93DF931F92CDB7DEB78C01F62E85
:100A700060E049830E9400058F2D8F7180620E9483
:100A8000D904F82E4981842F0E94D904C8010E94FC
:100A900018058F2D0F90DF91CF911F910F91FF902F
:100AA0000895CF92DF92EF92FF920F931F93CF930F
:100AB000DF9300D0CDB7DEB77C01062F142F60E0A6
:100AC00029835A830E940005802F8F7180620E94C3
:100AD000D904082FC12E5A81D52E2981120F1C1539
:100AE00031F0F60181916F010E94D904F8CFC7015E
:100AF0000E941805802F0F900F90DF91CF911F91CA
:100B00000F91FF90EF90DF90CF9008951F93CF93B8
:100B1000DF93EC01162F60E00E940005812F8F719A
:100B20000E94D9048FEF0E94D904182FCE010E9491
:100B30001805812FDF91CF911F910895EF92FF92B9
:100B40000F931F93CF938C017B0166E00E94860573
:100B5000C82FC77D82E0E816F10431F4C0628BE94A
:100B600090E0A0E0B0E00DC0EA94EF2829F085E520
:100B700090E0A0E0B0E005C0C86081E490E0A0E0B3
:100B8000B0E0F801808B918BA28BB38B4C2F66E089
:100B9000C8010E942E0566E0C8010E94860591E00A
:100BA0008C1390E0892FCF911F910F91FF90EF90C0
:100BB0000895CF93DF93EC0160E00E94860581FDEC
:100BC0000EC0482F426060E0CE010E942E0565E015
:100BD00070E080E090E0DF91CF910C948903DF9189
:100BE000CF910895CF93DF93EC010E94D90560E087
:100BF000CE010E948605482F416060E0CE010E9430
:100C00002E0540E767E0CE010E942E0561E0CE018F
:100C10000E94CD048985882349F02E85AE01475F67
:100C20005F4F6AE0CE010E94510514C062E0CE0120
:100C30000E948605E4E7F0E0E49121E030E001C0A5
:100C4000220FEA95EAF72095422F482362E0CE0171
:100C50000E942E056DE1CE010E94860581FF05C030
:100C6000CE01DF91CF910C941B05DF91CF910895B8
:100C70000E94E30B1F920F920FB60F9211242F9335
:100C80003F938F939F93AF93BF9380914C0190912B
:100C90004D01A0914E01B0914F0130914B0123E0E5
:100CA000230F2D3720F40196A11DB11D05C026E8A4
:100CB000230F0296A11DB11D20934B0180934C017F
:100CC00090934D01A0934E01B0934F01809150013C
:100CD00090915101A0915201B09153010196A11D33
:100CE000B11D8093500190935101A0935201B09394
:100CF0005301BF91AF919F918F913F912F910F9091
:100D00000FBE0F901F9018951F920F920FB60F9263
:100D100011242F933F934F935F936F937F938F9300
:100D20009F93AF93BF93EF93FF9380915D01909159
:100D30005E01A0915F01B0916001892B8A2B8B2B02
:100D400059F180915401E0915501F0915601908143
:100D50008927808380915D0190915E01A0915F0160
:100D6000B0916001181619061A061B060CF03DC05A
:100D700080915D0190915E01A0915F01B091600151
:100D80000197A109B10980935D0190935E01A09341
:100D90005F01B093600129C080910001EEE8F0E0AE
:100DA000E4919FEF90930001E130B9F098F0E230C8
:100DB000C9F4909170009D7F9093700091E09093A2
:100DC000B0009091B100987F94609093B100109220
:100DD000B30008C010926E0005C090916F009D7F17
:100DE00090936F0060E00E940D03FF91EF91BF911F
:100DF000AF919F918F917F916F915F914F913F91B3
:100E00002F910F900FBE0F901F9018951F920F9269
:100E10000FB60F9211242F933F934F935F936F93CD
:100E20007F938F939F93AF93BF93EF93FF9389E645
:100E300091E00E943904FF91EF91BF91AF919F9192
:100E40008F917F916F915F914F913F912F910F9073
:100E50000FBE0F901F9018951F920F920FB60F9212
:100E600011242F938F939F93EF93FF93E091790138
:100E7000F0917A018081E0917F01F091800182FD03
:100E800012C09081809182018F5F8F7320918301C6
:100E9000821751F0E0918201F0E0E759FE4F958F03
:100EA0008093820101C08081FF91EF919F918F918A
:100EB0002F910F900FBE0F901F901895CF93DF9337
:100EC000CDB7DEB760970FB6F894DEBF0FBECDBFCB
:100ED000789484B5826084BD84B5816084BD85B515
:100EE000826085BD85B5816085BD80916E00816021
:100EF00080936E00109281008091810082608093C7
:100F000081008091810081608093810080918000C8
:100F10008160809380008091B10084608093B100F3
:100F20008091B00081608093B00080917A008460ED
:100F300080937A0080917A00826080937A00809119
:100F40007A00816080937A0080917A008068809333
:100F50007A001092C10081E090E00E94B60A8C01F4
:100F6000E0917901F0917A0182E08083E09175014E
:100F7000F09176011082E0917701F091780180E1A3
:100F8000808310928101E0917D01F0917E0186E0E5
:100F90008083E0917B01F0917C019081906190834E
:100FA000E0917B01F0917C01908198609083E091C9
:100FB0007B01F0917C01908190689083E0917B01AE
:100FC000F0917C0190819F7D908368EC70E080E0DF
:100FD00090E00E9489038CE191E00E94F20410935A
:100FE0004801009347018FE291E00E94E00483E30F
:100FF00091E00E94F20486E290E00E94B60A7C0131
:1010000088E190E00E94B60A8C0189E090E0F80146
:10101000918380838AE090E093838283168280E2CA
:101020008783108685E0868785E090E0A0E0B0E0C9
:10103000848B958BA68BB78B118689E00E949100DB
:10104000F80182819381208131812817390711F0BD
:101050000E949100DFB6F89480914601811124C06E
:10106000EDEAF0E08491E1ECF0E09491E82FF0E01B
:10107000EE0FFF1FE756FF4FA591B491EC91E923C6
:1010800021F461E08AE00E940D038AE00E94910051
:101090008CB580618CBD8CB580648CBD8DE00E9468
:1010A00091008BE00E949100809146018F5F8093B8
:1010B0004601DFBE60E0C8010E94CD0461E0C801C6
:1010C0000E94000565E070E080E090E00E948903E6
:1010D0004CE060E0C8010E942E054FE564E0C801C5
:1010E0000E942E0562E070E0C8010E949E058823E0
:1010F00019F081E0F801868366E0C8010E94860548
:1011000060E070E0C8010E949E0560E0C8010E9496
:10111000000580E50E94D90483E70E94D904C80134
:101120000E94180540E06DE1C8010E942E0540E0D4
:101130006CE1C8010E942E05F801108640E767E0C7
:10114000C8010E942E054CE465E0C8010E942E05EE
:1011500060E0C8010E94000582EE0E94D904C80127
:101160000E941805C8010E941B05C8010E94D905EC
:1011700060E0C8010E948605482F4E7F60E0C801EC
:101180000E942E0560E070E0C8010E949E0566E0A6
:10119000C8010E948605482F476066E0C8010E948A
:1011A0002E056DE1C8010E948605482F44606DE15F
:1011B000C8010E942E056CE1C8010E948605482FD7
:1011C0004F636CE1C8010E942E0581E0F801808721
:1011D00043E364E0C8010E942E0582E389871A86F2
:1011E0001B861C861D861E861F86188AEFE6F0E089
:1011F0006491F8012685AE01475F5F4FC8010E94E8
:101200005105E9E6F0E06491F8014781C8010E94C8
:101210002E0562E0C8010E948605E5E7F0E0E49152
:1012200041E050E001C0440FEA95EAF7482B62E044
:10123000C8010E942E0581E389831A821B821C82C9
:101240001D821E821F821886F8012685AE014F5F1F
:101250005F4F6AE0C8010E945105F8012685AE0182
:101260004F5F5F4F60E1C8010E945105F80147815F
:1012700061E1C8010E942E05C8010E94F205F70134
:10128000118300838BE090E00E94B60AFC0110827B
:10129000F7019383828386E00E94910048EC50E03E
:1012A00060E070E088EE93E00E94B0008FE291E091
:1012B0000E94E00488E391E00E94F204F0924A0167
:1012C000E092490184E7C82E80E0D82EAA24A39496
:1012D000B12C0091490110914A0189E691E00E94E8
:1012E0002304892B09F4ABC04AE050E060E070E0D1
:1012F00080ED97E00E94B000E12CF12C89E691E0AE
:101300000E942304181619066CF489E691E00E94E5
:101310000104F801EE0DFF1D8483FFEFEF1AFF0AB1
:101320008B3321F080E2E816F10440F391E0E91AF2
:10133000F108F801F5A2E4A24801F4E08F0E911C37
:10134000F8010081118160E0C8010E94CD04F8011C
:10135000808991890E9459036DE1C8010E94860528
:1013600081FF08C0F801808991890E945903C80152
:101370000E941B0560E0C8010E948605482F4E7F31
:1013800060E0C8010E942E0562E0C8010E94860547
:10139000F6019491950101C0220F9A95EAF7482F22
:1013A000422B62E0C8010E942E05F801F780FE146E
:1013B00008F4EF2CF8018085811102C0FE1801C0ED
:1013C000F12C60E0C8010E94000580EA0E94D90467
:1013D0003401E80CE61431F0F30181913F010E94E1
:1013E000D904F8CFFF2029F080E00E94D904FA94B4
:1013F000F9CFC8010E94180561E0C8010E94CD0420
:1014000060E0C8010E9400058FEF0E94D904F82E09
:10141000C8010E9418058F2D807391F360E0C80108
:101420000E94CD0440E767E0C8010E942E0584FFBA
:1014300003C0C8010E941B05C8010E94F20561E0BB
:1014400070E080E090E00E9489030E94C30441CFD5
:10145000E9E6F1E01382128288EE93E0A0E0B0E0CA
:1014600084839583A683B7838BE091E09183808307
:1014700085EC90E09587848784EC90E09787868759
:1014800080EC90E0918B808B81EC90E0938B828B51
:1014900082EC90E0958B848B86EC90E0978B868B2A
:1014A000118E128E138E148E0895A1E21A2EAA1B8D
:1014B000BB1BFD010DC0AA1FBB1FEE1FFF1FA21704
:1014C000B307E407F50720F0A21BB30BE40BF50B01
:1014D000661F771F881F991F1A9469F7609570958A
:1014E000809590959B01AC01BD01CF010895052E1B
:1014F00097FB1EF400940E948E0A57FD07D00E94AD
:10150000550A07FC03D04EF40C948E0A5095409572
:10151000309521953F4F4F4F5F4F0895909580959F
:10152000709561957F4F8F4F9F4F08950E94A70A36
:10153000A59F900DB49F900DA49F800D911D112427
:101540000895EE0FFF1F0590F491E02D0994A29FDE
:10155000B001B39FC001A39F700D811D1124911D87
:10156000B29F700D811D1124911D0895CF93DF93BB
:101570008230910510F482E090E0E0910802F09151
:10158000090220E030E0C0E0D0E0309711F1408166
:10159000518148175907C0F04817590761F48281F3
:1015A0009381209719F09B838A832BC09093090223
:1015B0008093080226C02115310519F04217530700
:1015C00018F49A01BE01DF01EF010280F381E02DE2
:1015D000DCCF2115310509F1281B390B24303105E9
:1015E00090F412968D919C9113976115710521F0DD
:1015F000FB019383828304C09093090280930802C5
:10160000FD01329644C0FD01E20FF31F81939193D7
:10161000225031092D933C933AC02091060230911B
:101620000702232B41F420910301309104013093F0
:101630000702209306022091010130910201211539
:10164000310541F42DB73EB7409105015091060197
:10165000241B350BE0910602F0910702E217F30715
:10166000A0F42E1B3F0B2817390778F0AC014E5F12
:101670005F4F2417350748F04E0F5F1F5093070246
:10168000409306028193919302C0E0E0F0E0CF0125
:10169000DF91CF9108950F931F93CF93DF9300971E
:1016A00009F48CC0FC013297138212820091080267
:1016B000109109020115110581F420813181820FF9
:1016C000931F20910602309107022817390779F5F8
:1016D000F0930702E093060271C0D80140E050E0A9
:1016E000AE17BF0750F412962D913C911397AD01A0
:1016F0002115310509F1D901F3CF9D01DA013383B9
:10170000228360817181860F971F8217930769F486
:10171000EC0128813981260F371F2E5F3F4F31831F
:1017200020838A819B8193838283452B29F4F093C4
:101730000902E093080242C01396FC93EE931297BD
:10174000ED01499159919E01240F351FE217F307CE
:1017500071F480819181840F951F029611969C935C
:101760008E938281938113969C938E931297E0E0DF
:10177000F0E0D80112968D919C911397009719F083
:10178000F8018C01F6CF8D919C9198012E5F3F4F0F
:10179000820F931F20910602309107022817390704
:1017A00069F4309729F4109209021092080202C0DD
:1017B000138212821093070200930602DF91CF91E9
:1017C0001F910F91089581E090E0F8940C94E80B3C
:0417D000F894FFCFBB
:1017D400FF00000A022000000000005A04C303F2C4
:1017E40003A1042304010415040D0A0044454255D1
:1017F400473A20496E69742073657269616C0044CC
:101804003A20004241534500496E6974204D616E8F
:061814006167657200002F
:00000001FF
